S028000053544B333730305F45464D333247475F7377697463685F6C65645F706F6C6C65642E73333782
S11300000000022091010000BD010000BD010000BC
S1130010BD010000BD010000BD010000BD010000E4
S1130020BD010000BD010000BD010000BD010000D4
S1130030BD010000BC010000BD010000210800005A
S1130040BD010000BD010000BD010000BD010000B4
S1130050BD010000BD010000BD010000BD010000A4
S1130060BD010000BD010000BD010000BD01000094
S1130070BD010000BD010000BD010000BD01000084
S1130080BD010000BD010000BD010000BD01000074
S1130090BD010000BD010000BD010000BD01000064
S11300A0BD010000BD010000BD010000BD01000054
S11300B0BD010000BD010000BD010000BD01000044
S11300C0BD010000BD010000BD010000BD01000034
S11300D0BD010000BD010000BD01000010B5054CCC
S11300E0237833B9044B13B10448AFF300800123E0
S11300F0237010BD74000020000000002C0D0000CF
S113010008B5034B1BB103490348AFF3008008BD96
S113011000000000780000202C0D0000154B002B7F
S113012008BF134B9D46A3F5803A00218B460F462A
S11301301348144A121A00F039FD0F4B002B00D05B
S113014098470E4B002B00D0984700200021040054
S11301500D000D48002802D00C48AFF3008000F0D9
S113016001FD2000290000F0E3FB00F0E7FC00BFE4
S11301700000080000000220000000000000000051
S11301807400002094000020000000000000000023
S1130190064880470649074A074B9A42BEBF51F8B2
S11301A0040B42F8040BF8E7FFF7B8FF0D03000057
S11301B0380D00000000002074000020FEE700BF9E
S11301C080B400AF034BDB6C1B0EDBB21846BD469C
S11301D080BC7047B081E00F80B582B000AF00F002
S11301E015F87860074B5B6803F00F037A6822FA0E
S11301F003F37B60044A7B6813607B681846083706
S1130200BD4680BD00800C400800002080B582B04F
S113021000AF334BDB6A03F47053B3F5805F0AD04D
S1130220B3F5005F03D0B3F5006F08D00BE02D4B9E
S11302301B687B6047E04FF400437B6043E02A4B3C
S11302401B687B603FE0264BDB6803F4E063B3F597
S1130250007F1BD0B3F5007F05D8002B24D0B3F565
S1130260807F16D02BE0B3F5806F09D0B3F5A06F73
S113027003D0B3F5407F06D021E01C4B7B6021E026
S11302801B4B7B601EE01B4B7B601BE01A4B7B60AF
S113029018E0FFF795FF0346122B02D9174B7B603A
S11302A010E0174B7B600DE0FFF78AFF0346122B2B
S11302B002D9144B7B6005E0134B7B6002E0002302
S11302C07B6000BF00BF064B1B689B0B03F007035A
S11302D001337A68B2FBF3F318460837BD4680BD94
S11302E000800C400400002000000020003FAB010F
S11302F0406F4001809FD500C0D8A70040B564007E
S1130300C0CF6A00804F120040420F0080B400AF9B
S1130310034B044A9A6000BFBD4680BC704700BFCF
S113032000ED00E00000000080B487B000AFF8608A
S1130330B9607A60FB6803F10473DA00BB681344A4
S11303409B007B617B697A681A6000BF1C37BD46DD
S113035080BC704780B400AF034BDB6C1B0CDBB27A
S11303601846BD4680BC7047B081E00F80B582B0AE
S113037000AFFFF7EFFF03464A2B04D0792B02D0DE
S1130380482B23D024E0154B1B699BB21B029BB264
S113039003F47C53FB80114B9B691B091B0103F085
S11303A0F0039AB2FB881343FB800C4BDB691B09F7
S11303B003F00F039AB2FB881343FB80FB88B3F569
S11303C0017F01D3064B04E0064B02E0054B00E03D
S11303D0002318460837BD4680BD00BFD0FF0FE09C
S11303E000366E010048E80180B584B000AF786043
S11303F00123FB60FFF7BAFF02467B68934204D8EF
S11304000023FB600023BB600BE0FFF7AFFF034654
S11304105B007A689A4202D80123BB6001E00223A0
S1130420BB60FA681E210848FFF77EFF064B5B6835
S113043023F48072BB681B02034913434B6000BF63
S11304401037BD4680BD00BF00800C4080B483B02F
S113045000AF7860094B5B6D03F00103002B07D1FB
S113046000BF064B1A6D7B681340002BF9D100E0E6
S113047000BF0C37BD4680BC704700BF00800C40F5
S113048080B586B000AF78600B46FB7000233B61FB
S11304907B681B0A03F00F03013B092B44D801A21C
S11304A052F823F0DF040000E5040000CD0400004E
S11304B02905000029050000EB040000F5040000F4
S11304C02905000029050000FF040000184B7B618A
S11304D0FFF782FE03461846FFF786FF12E0154B2E
S11304E07B610FE0144B7B610CE0144B7B610123B7
S11304F03B6107E0124B7B6110233B6102E0114B2F
S11305007B6100BF7B681B0B03F01F03FB603B692F
S1130510002B02D03869FFF799FFFB781A46F96877
S11305207869FFF701FF00E000BF1837BD4680BDC2
S113053040800C4008800C4044800C4058800C40A3
S113054060800C4078800C4080B483B000AF0346D8
S11305503960FB71FB79002B0DD0FB79012B0AD09C
S1130560FB79022B07D0FB79032B04D0FB79042BF6
S113057001D0FB79052B01223B6802FA03F30749FA
S1130580FA7918461346DB0013449B000B441433DA
S1130590186000BF0C37BD4680BC70470060004047
S11305A080B483B000AF03463960FB71FB79002B44
S11305B00DD0FB79012B0AD0FB79022B07D0FB79F4
S11305C0032B04D0FB79042B01D0FB79052B0122EA
S11305D03B6802FA03F30749FA7918461346DB002D
S11305E013449B000B441033186000BF0C37BD4606
S11305F080BC70470060004080B584B000AFB96033
S11306007B600346FB731346BB73FB7B002B0DD04F
S1130610FB7B012B0AD0FB7B022B07D0FB7B032B3C
S113062004D0FB7B042B01D0FB7B052BBB7B002B75
S11306300DD07B68002B05D0FB7BB9681846FFF70B
S1130640AFFF04E0FB7BB9681846FFF77DFFBB688A
S1130650072B20D82D49FA7B1346DB0013449B005B
S11306600B4404331A68BB689B000F2101FA03F39F
S1130670DB431340B97BBA68920001FA02F21146D7
S11306802248FA7B19431346DB0013449B000344BE
S11306900433196025E01D49FA7B1346DB0013443B
S11306A09B000B4408331A68BB6803F18043083B82
S11306B09B000F2101FA03F3DB4302EA0301BA7B37
S11306C0BB6803F18043083B9B0002FA03F30F4825
S11306D0FA7B19431346DB0013449B00034408339D
S11306E01960BB7B002B0DD17B68002B05D0FB7BF5
S11306F0B9681846FFF754FF04E0FB7BB968184655
S1130700FFF722FF00BF1037BD4680BD00600040E8
S113071080B485B000AF78601A4B5B69DBB29B0094
S1130720DBB203F03C03FB73164B1B699B09DBB282
S113073003F00303DAB2FB7B1343FB737B68FA7B9E
S11307409A70104B1B69DBB203F03F03DAB27B688B
S11307505A700C4B9B691B09DBB21B01FB73094BE1
S1130760DB691B09DBB203F00F03DAB2FB7B134333
S1130770FB737B68FA7B1A7000BF1437BD4680BCDC
S1130780704700BFD0FF0FE080B483B000AF0346D2
S11307903960FB7197F90730002B0ADB3B68DAB24A
S11307A00C4997F907305201D2B20B4483F8002365
S11307B00AE03B68DAB20849FB7903F00F03043B13
S11307C05201D2B20B441A7600BF0C37BD4680BC2E
S11307D0704700BF00E100E000ED00E080B582B0AA
S11307E000AF78607B68013BB3F1807F01D30123C4
S11307F00FE00A4A7B68013B536007214FF0FF304A
S1130800FFF7C2FF054B00229A60044B07221A60CF
S1130810002318460837BD4680BD00BF10E000E045
S113082080B400AF044B1B680133034A136000BF5C
S1130830BD4680BC704700BF9000002080B485B0E6
S113084000AF7860074B1B68FB6000BF054B1A685C
S1130850FB68D31A7A689A42F8D800BF1437BD46A9
S113086080BC70479000002080B500AF054B1B682A
S1130870054AA2FB03239B091846FFF7AFFF62B6A4
S113088000BF80BD08000020D34D621080B400AFCB
S1130890034BDB6C1B0EDBB21846BD4680BC7047B5
S11308A0B081E00F80B582B000AF0E4B01221A6414
S11308B0FFF7ECFF0346FB713B1D1846FFF728FFCB
S11308C0FB790F2B0AD93B79022B07D9064B1B68FE
S11308D023F05003044A43F01003136000BF0837A9
S11308E0BD4680BD00000C40C0800C4080B500AF08
S11308F001210E48FFF7C4FD002301220921012034
S1130900FFF77AFE002301220A210120FFF774FE7B
S11309100023042202210420FFF76EFE0023042298
S113092003210420FFF768FE00BF80BD00D204004D
S113093080B500AFFFF7B6FFFFF796FFFFF7D6FFCE
S1130940014800F0C3F8FBE7D80B000080B483B083
S113095000AF03463960FB71FB79002B0DD0FB79A6
S1130960012B0AD0FB79022B07D0FB79032B04D08F
S1130970FB79042B01D0FB79052B01223B6802FA99
S113098003F30749FA7918461346DB0013449B0026
S11309900B441433186000BF0C37BD4680BC70474D
S11309A00060004080B483B000AF03463960FB713F
S11309B0FB79002B0DD0FB79012B0AD0FB79022B9C
S11309C007D0FB79032B04D0FB79042B01D0FB79EE
S11309D0052B01223B6802FA03F30749FA7918460A
S11309E01346DB0013449B000B441033186000BF14
S11309F00C37BD4680BC70470060004080B483B0B3
S1130A0000AF78607B681B78402B0AD97B681B7821
S1130A105A2B06D87B681B782033DAB27B681A70AD
S1130A2000BF0C37BD4680BC7047000080B586B05F
S1130A3000AF78607B681B78FB7207F10B031846E4
S1130A40FFF7DCFFFB7A202B04D140F2D660FFF7DE
S1130A50F5FE36E00023FB7415E0FA7C1A491346D0
S1130A60DB0013440B441A78FB7A9A4208D1FA7CCF
S1130A701346DB001344144A134401337B6106E03C
S1130A80FB7C0133FB742322FB7C9342E5D37B691B
S1130A90FB6012E0FB681B782E2B02D100F02FF8CC
S1130AA005E0FB681B782D2B01D100F037F8FA2004
S1130AB0FFF7C4FEFB680133FB60FB681B78002B67
S1130AC0E8D11837BD4680BDEC0B000080B584B07A
S1130AD000AF78607B68FB6009E0F868FFF7A6FF69
S1130AE040F2EE20FFF7AAFEFB680133FB60FB68CF
S1130AF01B78002BF1D100BF1037BD4680BD80B5F7
S1130B0000AF02210420FFF74DFFFA20FFF796FE05
S1130B1002210420FFF71AFF00BF80BD80B500AF9B
S1130B2002210420FFF73EFF40F2EE20FFF786FE8D
S1130B3002210420FFF70AFF00BF80BD08B5074B60
S1130B40044613B10021AFF30080054B1868836A93
S1130B5003B19847204600F031F800BF00000000C0
S1130B60280D000070B500250C4E0D4CA41BA410DC
S1130B70A54209D100F024F800250A4E0A4CA41B12
S1130B80A410A54205D170BD56F82530984701350B
S1130B90EEE756F8253098470135F2E76C0000205F
S1130BA06C0000206C00002070000020034602440A
S1130BB0934200D1704703F8011BF9E7FEE700BF39
S1130BC0F8B500BFF8BC08BC9E467047F8B500BF36
S1130BD0F8BC08BC9E4670475365626173746961D2
S1130BE06E204B6F637A757220000000612E2D0019
S1130BF00000000000622D2E2E2E00000000632D48
S1130C002E2D2E00000000642D2E2E00000000006A
S1130C10652E00000000000000662E2E2D2E000020
S1130C200000672D2D2E0000000000682E2E2E2EB1
S1130C3000000000692E2E0000000000006A2E2D26
S1130C402D2D000000006B2D2E2D00000000006CE7
S1130C502E2D2E2E000000006D2D2D000000000012
S1130C60006E2D2E0000000000006F2D2D2D0000C1
S1130C70000000702E2D2D2E00000000712D2D2E51
S1130C802D00000000722E2D2E0000000000732E97
S1130C902E2E0000000000742D0000000000000053
S1130CA0752E2E2D0000000000762E2E2E2D000015
S1130CB00000772E2D2D0000000000792D2E2D2D03
S1130CC0000000007A2D2D2E2E00000000302D2D66
S1130CD02D2D2D000000312E2D2D2D2D0000003244
S1130CE02E2E2D2D2D000000332E2E2E2D2D000006
S1130CF000342E2E2E2E2D000000352E2E2E2E2EBC
S1130D00000000362D2E2E2E2E000000372D2D2E05
S1130D102E2E000000382D2D2D2E2E000000392DF2
S1130D202D2D2D2E000000000C00002000000000DE
S10B0D30ECF3FF7F0100000059
S1130D38006CDC0200800000809FD50000000000E9
S1130D480000000000000000000000000000000097
S1130D580000000000000000000000000000000087
S1130D680000000000000000000000000000000077
S1130D780000000000000000000000000000000067
S1130D880000000000000000000000000000000057
S1130D980000000000000000000000000101000045
S1070DA8DD00000066
S90301916A
